:100000000C9462000C948A000C948A000C948A0070
:100010000C948A000C948A000C948A000C948A0038
:100020000C948A000C948A000C948A000C942B087F
:100030000C948A000C948A000C948A000C948A0018
:100040000C94E1070C948A000C94AF070C94890778
:100050000C948A000C948A000C948A000C948A00F8
:100060000C94E7080C948A0000000000240027008C
:100070002A0000000000250028002B0000000000DE
:1000800023002600290004040404040404040202DA
:100090000202020203030303030301020408102007
:1000A0004080010204081020010204081020000012
:1000B0000008000201000003040700000000000027
:1000C0000000060A11241FBECFEFD8E0DEBFCDBF6F
:1000D00011E0A0E0B1E0EAEBF4E202C005900D927D
:1000E000A03AB107D9F723E0A0EAB1E001C01D9220
:1000F000AF34B207E1F710E0C2E6D0E004C02197C8
:10010000FE010E946310C136D107C9F70E948A0A16
:100110000C945B120C9400008F929F92AF92BF924E
:10012000FF920F931F93CF93DF93F0903C032BE04C
:100130002F1508F44CC020913E0308E512E0021B85
:10014000110927FD1395000F111F000F111F20919A
:100150003D03C8E8D0E0C21BD10927FDD395CC0FE1
:10016000DD1FCC0FDD1F4E010D2E000CAA08BB08B1
:100170009801012E000C440B550B281939094A0926
:100180005B09DC010E943F0F24EB30E040E050E0CF
:100190000E94150F820E931EA41EB51E8C169D067E
:1001A0002CF0E801801691060CF4E4012297CC0FA4
:1001B000DD1F2FB7F8948F2D90E0FC01EE0FFF1F8D
:1001C000E80FF91FE95EFC4FD283C1832FBFDF9197
:1001D000CF911F910F91FF90BF90AF909F908F9004
:1001E000089508950895AF92BF92CF92DF92EF9253
:1001F000FF920F931F93CF93DF936C017B018B01D1
:10020000040F151FEB015E01AE18BF08C017D10720
:1002100059F06991D601ED91FC910190F081E02DAA
:10022000C6010995892B79F7C501DF91CF911F91FF
:100230000F91FF90EF90DF90CF90BF90AF90089517
:10024000FC0144815581608171818FE393E00C94BE
:10025000F300FC01538D448D252F30E0842F90E076
:10026000821B930B541710F0CF96089501970895B1
:10027000FC01918D828D981761F0A28DAE0FBF2F7A
:10028000B11D5D968C91928D9F5F9F73928F90E0D0
:1002900008958FEF9FEF0895FC01918D828D98173F
:1002A00031F0828DE80FF11D858D90E008958FEF7C
:1002B0009FEF0895FC01918D228D892F90E0805C45
:1002C0009F4F821B91098F73992708958EE692E0C4
:1002D0000E945A0121E0892B09F420E0822F089521
:1002E00080E090E0892B29F00E94660181110C9436
:1002F00000000895FC01A48DA80FB92FB11DA35AC9
:10030000BF4F2C91848D90E001968F739927848F35
:10031000A689B7892C93A089B1898C918370806458
:100320008C93938D848D981306C00288F389E02DF9
:1003300080818F7D80830895EF92FF920F931F93AA
:10034000CF93DF93EC0181E0888F9B8D8C8D981388
:100350001AC0E889F989808185FF15C09FB7F89494
:10036000EE89FF896083E889F989808183708064E0
:1003700080839FBF81E090E0DF91CF911F910F912B
:10038000FF90EF900895F62E0B8D10E00F5F1F4F3A
:100390000F731127E02E8C8D8E110CC00FB607FC49
:1003A000FACFE889F989808185FFF5CFCE010E94D7
:1003B0007A01F1CFEB8DEC0FFD2FF11DE35AFF4FCA
:1003C000F0829FB7F8940B8FEA89FB898081806265
:1003D000CFCFCF93DF93EC01888D8823B9F0AA8922
:1003E000BB89E889F9898C9185FD03C0808186FDF0
:1003F0000DC00FB607FCF7CF8C9185FFF2CF80813F
:1004000085FFEDCFCE010E947A01E9CFDF91CF9138
:100410000895833081F028F4813099F08230A9F07A
:1004200008958730A9F08830C9F08430B1F4809104
:1004300080008F7D03C0809180008F778093800043
:10044000089584B58F7784BD089584B58F7DFBCFE3
:100450008091B0008F778093B00008958091B000B4
:100460008F7DF9CFCF93DF93282F30E0F901E2554C
:10047000FF4F8491F901E656FF4FD491F901EA57F5
:10048000FF4FC491CC23A1F081110E940902EC2FEF
:10049000F0E0EE0FFF1FE458FF4FA591B491EC91EF
:1004A000ED2381E090E009F480E0DF91CF910895A1
:1004B00080E090E0FACF1F93CF93DF93282F30E0B6
:1004C000F901E255FF4F8491F901E656FF4FD491AF
:1004D000F901EA57FF4FC491CC23A9F0162F8111DF
:1004E0000E940902EC2FF0E0EE0FFF1FEE58FF4FC5
:1004F000A591B4918FB7F894EC91111108C0D095E3
:10050000DE23DC938FBFDF91CF911F910895DE2B07
:10051000F8CFCF93DF9390E0FC01E656FF4F249194
:100520008A579F4FFC0184918823D1F090E0880F77
:10053000991FFC01E859FF4FA591B491FC01EE58B9
:10054000FF4FC591D491623071F49FB7F8943C91FC
:10055000822F809583238C93E8812E2B28839FBF45
:10056000DF91CF9108958FB7F894EC912E2B2C93B7
:100570008FBFF6CF3FB7F894809154029091550207
:10058000A0915602B091570226B5A89B05C02F3FF7
:1005900019F00196A11DB11D3FBFBA2FA92F982FA9
:1005A0008827BC01CD01620F711D811D911D42E0A4
:1005B000660F771F881F991F4A95D1F708958F926C
:1005C0009F92AF92BF92CF92DF92EF92FF924B0138
:1005D0005C010E94BA026B017C010E94BA026C1994
:1005E0007D098E099F09683E734081059105A8F336
:1005F00021E0821A9108A108B10888EEC80E83E0B4
:10060000D81EE11CF11C81149104A104B10429F746
:10061000FF90EF90DF90CF90BF90AF909F908F9022
:10062000089508952091E101260F3327331F2132C9
:100630003105ECF420912B02FC0190E080E02430A5
:1006400069F082E00895A091E1012191AC014F533E
:100650005E4FA40FB52FB11D2C930196861798F30A
:100660008091E101680F6093E10180E0089581E0ED
:10067000089510922B0281E080932A0210920502C5
:1006800061E082E10E945B0261E083E10E945B0223
:10069000E9EBF0E080818E7F808380818D7F808395
:1006A00088E48093B80085E48093BC000895CF93DC
:1006B000DF9391E09093C0018823B9F0C091B80016
:1006C000D091BA008091BC008A7B8093BC0060E02E
:1006D00082E10E945B0260E083E10E945B020E9473
:1006E0003903D093BA00C093B800DF91CF91089539
:1006F0000895E0915F0280915E02E81730F4F0E027
:10070000E056FE4F808190E008958FEF9FEF0895AF
:1007100090915F0280915E022FEF3FEF981748F4AF
:10072000E92FF0E0E056FE4F208130E09F5F90938C
:100730005F02C901089580915E0290915F02891B5A
:10074000990B0895CF92DF92EF92FF920F931F9330
:10075000CF93DF937C01CB018A01209131022223C8
:1007600089F0EB016B01C40ED51ECC15DD0569F0D7
:100770006991D701ED91FC910190F081E02DC701C5
:100780000995F3CF642F0E941203C801DF91CF9126
:100790001F910F91FF90EF90DF90CF900895CF932E
:1007A000DF931F92CDB7DEB76983209131022223F8
:1007B000F9F020915C02203258F021E030E0FC0199
:1007C0003383228390E080E00F90DF91CF910895F2
:1007D00080915D02E82FF0E0EE5CFD4F99819083FF
:1007E0008F5F80935D0280935C0281E090E0ECCFAC
:1007F00061E0CE0101960E941203F7CFCF92DF9203
:10080000EF92FF920F931F93CF93DF93FC01C4816C
:1008100021E020933102C093520210925D021092A7
:100820005C028385682B8BE093E00E94CF03D0911C
:100830005C02D13208F092C00E94BA026B017C01C6
:1008400080912B02811165C082E080932B0281E0B0
:1008500080932A028FEF8093290210922802D0936E
:100860002702A2E3B2E0E7E0F2E080E0D81385C01F
:100870001092060280910602CC0FC82BC09306028C
:1008800080910502813009F07CC0109205020E941F
:10089000BA026B017C01809106028093BB008091BB
:1008A0002D0290912E02A0912F02B0913002892B3F
:1008B0008A2B8B2B99F00E94BA0200912D02109185
:1008C0002E0220912F02309130026C197D098E0981
:1008D0009F090617170728073907E0F18091BC0028
:1008E00083FDD9CF85EC8093BC000E94BA026B01D6
:1008F0007C0180912B02823009F445C0809129024D
:100900008F3F61F180912902803241F1809129026B
:1009100025C080912D0290912E02A0912F02B091BE
:100920003002892B8A2B8B2B09F48ACF0E94BA02C2
:1009300000912D0210912E0220912F023091300251
:100940006C197D098E099F090617170728073907B3
:1009500008F076CF80912C020E94570310925D021E
:1009600010925C0210923102DF91CF911F910F9192
:10097000FF90EF90DF90CF9008959D9191938F5FBE
:1009800075CF85EEB0CF80912D0290912E02A0916F
:100990002F02B0913002892B8A2B8B2B09F4A9CF1F
:1009A0000E94BA0200912D0210912E0220912F0276
:1009B000309130026C197D098E099F0906171707BF
:1009C0002807390708F095CFC5CF90E080E008955B
:1009D000CF93DF93EC0184E00E943202892B59F41B
:1009E0008091000190910101C80FD91F0196909349
:1009F00001018093000185E00E943202892B69F495
:100A00008091000190910101C81BD90BD7FD19C03D
:100A10000196909301018093000185E00E943202CB
:100A2000892B59F084E00E943202892B31F081E059
:100A300090E09093010180930001CE01DF91CF916E
:100A40000895D0E0C0E0E9CFFC0101900020E9F773
:100A50003197AF01481B590BBC018FE393E00C9415
:100A6000F3000F931F93CF93DF93EC01888199815B
:100A7000009759F02A813B812617370730F081E033
:100A8000DF91CF911F910F9108958B016F5F7F4F81
:100A90000E948E11009759F0998388831B830A83E3
:100AA0002C813D81232B59F7FC011082E8CF80E097
:100AB000E7CFEF92FF920F931F93CF93DF936115D0
:100AC000710541F480E0DF91CF911F910F91FF906C
:100AD000EF90089541155105B1F07B01EC010C81B7
:100AE0001D81040F151FB8010E943105882351F3A1
:100AF000288139818C819D81B701820F931F0E94CB
:100B000054121D830C8381E0DECFCF93DF93EC0181
:100B100088819981009711F00E940511198218822D
:100B20001D821C821B821A82DF91CF910895CF9380
:100B3000DF93EC01FB0101900020E9F73197AF0151
:100B4000461B570B0E945905811103C0CE010E941C
:100B50008505CE01DF91CF910895CF93DF93EC010E
:100B6000FB0144815581608171810E945905811189
:100B700003C0CE010E948505CE01DF91CF9108957B
:100B8000EF92FF920F931F93CF93DF93EC017B01C2
:100B90008A01BA010E94310581110BC0CE010E9469
:100BA0008505CE01DF91CF911F910F91FF90EF90BE
:100BB00008951D830C83B701888199810E94541286
:100BC000F0CFFB0101900020E9F73197AF01461B00
:100BD000570B0C94C0050F931F93CF93DF93CDB7A2
:100BE000DEB761970FB6F894DEBF0FBECDBF8C01A4
:100BF000CB01F801118210821382128215821482B5
:100C00004AE0BE016F5F7F4F0E945D0EBE016F5FC5
:100C10007F4FC8010E94E10561960FB6F894DEBFD0
:100C20000FBECDBFDF91CF911F910F9108950F930C
:100C30001F93CF93DF93CDB7DEB762970FB6F894CB
:100C4000DEBF0FBECDBF8C01CB01F8011182108237
:100C500013821282158214824AE0BE016F5F7F4FB9
:100C60000E94300EBE016F5F7F4FC8010E94E105F8
:100C700062960FB6F894DEBF0FBECDBFDF91CF9165
:100C80001F910F910895CF93DF93EC01FB0186171D
:100C9000970749F0608171816115710541F04481C8
:100CA00055810E94C005CE01DF91CF9108950E9429
:100CB0008505F9CFFC0180819181009711F00C949A
:100CC000051108950F931F93CF938C01C62F0E9497
:100CD000FE036C2F6460C8010E94FE036C2F6B7FC3
:100CE000C8010E94FE0383EC90E00197F1F7CF91D9
:100CF0001F910F9108950F931F93CF93DF938C0152
:100D0000D62FC42F607F642B0E94620680E1D89F9B
:100D1000B00111246C2BC801DF91CF911F910F916D
:100D20000C94620640E061E08FE393E00E947B0652
:100D30008BE39FE10197F1F70895CF93DF93823022
:100D400028F0909144039860909344038093470364
:100D500062E370E080E090E00E94DF0260914A036D
:100D60008FE393E00E94FE0368EE73E080E090E082
:100D70000E94DF0260E38FE393E00E946206CBE40F
:100D8000D6E4CE010197F1F760E38FE393E00E9490
:100D900062062197F1F760E38FE393E00E94620619
:100DA00083E592E00197F1F760E28FE393E00E9420
:100DB000620660914403606240E08FE393E00E942A
:100DC0007B0684E08093450340E06CE08FE393E092
:100DD0000E947B060E94920682E08093460340E0D8
:100DE00066E08FE393E00E947B0640E062E08FE3E1
:100DF00093E00E947B068BE39FE10197F1F7DF917F
:100E0000CF910895CF93DF93CDB7DEB728970FB674
:100E1000F894DEBF0FBECDBF98E0E8E0F1E0DE0160
:100E2000119601900D929A95E1F7909147039617CC
:100E300008F46FEF262F30E0220F331F41E050E01F
:100E40004C0F5D1F240F351FF9016081680F60682A
:100E500040E08FE393E028960FB6F894DEBF0FBE14
:100E6000CDBFDF91CF910C947B0661E080E00E94C2
:100E7000020780E491E00E94240561E08BE00E947B
:100E8000020786E491E00E94240564E670E080E0B9
:100E900090E00C94DF0241E00E947B0681E090E04C
:100EA000089585ED8093BC0080912D0290912E02D3
:100EB000A0912F02B09130020796A11DB11D23E031
:100EC000B695A795979587952A95D1F72091BC005F
:100ED00024FD03C010922B02089540912D025091E1
:100EE0002E0260912F0270913002452B462B472B2A
:100EF00069F30097A105B10541F02AE22A95F1F7BF
:100F000000C00197A109B109E1CF80912C020C9496
:100F100057031F920F920FB60F9211242F933F93F6
:100F20004F935F936F937F938F939F93AF93BF93F1
:100F3000EF93FF938EE692E00E947A01FF91EF918A
:100F4000BF91AF919F918F917F916F915F914F91E1
:100F50003F912F910F900FBE0F901F9018951F92E9
:100F60000F920FB60F9211242F938F939F93EF93AD
:100F7000FF93E0917E02F0917F028081E0918402F4
:100F8000F091850282FD1BC09081809187028F5F66
:100F90008F7320918802821741F0E0918702F0E080
:100FA000E259FD4F958F80938702FF91EF919F91BA
:100FB0008F912F910F900FBE0F901F9018958081E9
:100FC000F4CF1F920F920FB60F9211242F933F93DD
:100FD0008F939F93AF93BF9380916402909165022A
:100FE000A0916602B09167023091530223E0230F73
:100FF0002D3758F50196A11DB11D20935302809302
:10100000640290936502A0936602B0936702809198
:10101000540290915502A0915602B0915702019648
:10102000A11DB11D8093540290935502A0935602C6
:10103000B0935702BF91AF919F918F913F912F91A4
:101040000F900FBE0F901F90189526E8230F029661
:10105000A11DB11DD2CF1F920F920FB60F92112476
:101060002F933F934F935F936F937F938F939F93B0
:10107000AF93BF93CF93DF93EF93FF9380910402DD
:10108000C0913B03D0E087FF24C0109285001092EE
:101090008400809104028F5F809304028091040297
:1010A000082E000C990B8C179D0724F480910402E4
:1010B0008C30C4F180918400909185000496803436
:1010C0009C4908F47AC08091840090918500049630
:1010D00076C080910402082E000C990B8C179D0796
:1010E000C4F6E09104028E2FEE0F990BFC01EE0F77
:1010F000FF1FE80FF91FE95EFC4F808186FFC9CF13
:10110000E09104028E2FEE0F990BFC01EE0FFF1FF2
:10111000E80FF91FE95EFC4F808160E08F730E9449
:101120005B02B7CF2091840030918500E0910402EA
:101130008E2FEE0F990BFC01EE0FFF1FE80FF91F2A
:10114000E95EFC4F81819281820F931F9093890009
:1011500080938800E09104028E2FEE0F990BFC0122
:10116000EE0FFF1FE80FF91FE95EFC4F808186FF3D
:1011700011C0E09104028E2FEE0F990BFC01EE0FCF
:10118000FF1FE80FF91FE95EFC4F808161E08F735C
:101190000E945B02FF91EF91DF91CF91BF91AF91E0
:1011A0009F918F917F916F915F914F913F912F917F
:1011B0000F900FBE0F901F90189580E49CE99093BC
:1011C0008900809388008FEF80930402E3CF1F9201
:1011D0000F920FB60F9211242F933F934F935F936B
:1011E0006F937F938F939F93AF93BF93EF93FF93EF
:1011F0008091B900887F803609F44AC0F0F58832C2
:1012000009F4A7C018F5803109F49BC0B8F488230D
:1012100009F4F9C0883009F494C0FF91EF91BF91AF
:10122000AF919F918F917F916F915F914F913F917E
:101230002F910F900FBE0F901F901895883109F4D1
:1012400088C0803251F78093290214C0803409F499
:101250009DC040F48033B9F38833F9F680932902B6
:1012600085ECB0C0803509F485C0883509F496C096
:10127000883499F60E945107D0CF883909F48CC080
:1012800038F5883729F050F4883611F0803729F680
:1012900083E080932B021092030257C0883809F430
:1012A0007BC0803919F0803809F0B7CF80910302F4
:1012B000803208F071C0E091030281E08E0F8093CC
:1012C00003028091BB00F0E0ED51FE4F80833DC0F2
:1012D000803B39F0E0F4803A09F479C0883A09F0AB
:1012E0009CCF84E080932B021092E2011092E101E6
:1012F000E0915A02F0915B0209958091E101811120
:101300000FC081E08093E1011092C10109C0803CCF
:1013100009F4A6CF883C09F4A3CF883B09F07DCF20
:10132000E091E20181E08E0F8093E201F0E0EF5363
:10133000FE4F80818093BB009091E2018091E1019A
:1013400029C0809106028093BB0085EC8093BC008D
:1013500064CF9091280280912702981758F5E09168
:10136000280281E08E0F80932802F0E0E95FFD4FB4
:101370008081E9CFE091280281E08E0F80932802DE
:101380008091BB00F0E0E95FFD4F808390912802DF
:10139000809127029817C8F285E8D8CFE0912802FB
:1013A00081E08E0F809328028091BB00F0E0E95F1E
:1013B000FD4F808380912A0281115CCF81E0809370
:1013C000050284EA8093BC0010922B0226CF85ECA4
:1013D0008093BC0010922B0280910302803230F483
:1013E000E0910302F0E0ED51FE4F108260910302A4
:1013F00070E0E0915802F091590283EE91E0099576
:10140000109203020ACF1092290234CF1092710277
:101410001092700288EE93E0A0E0B0E08093720238
:1014200090937302A0937402B093750224E131E0AB
:1014300030936F0220936E0225EC30E030937B02F4
:1014400020937A0224EC30E030937D0220937C02DA
:1014500020EC30E030937F0220937E0221EC30E0DC
:10146000309381022093800222EC30E0309383029B
:101470002093820226EC30E0309385022093840290
:1014800010928702109288021092890210928A02AA
:1014900010920E0310920D0380930F03909310038C
:1014A000A0931103B093120386E291E090930C0392
:1014B00080930B03109242031092410388E391E062
:1014C0009093400380933F0387E28093430380E13E
:1014D0008093480382E08093490310924A038091ED
:1014E0003B038C3098F491E0980F90933B038093EA
:1014F0003C0390E0FC01EE0FFF1FE80FF91FE95ECF
:10150000FC4F88EB9BE09283818308958FEF80935B
:101510003C030895CF93DF93CDB7DEB7AF970FB6F7
:10152000F894DEBF0FBECDBF789484B5826084BDD1
:1015300084B5816084BD85B5826085BD85B58160D7
:1015400085BD80916E00816080936E001092810055
:101550008091810082608093810080918100816010
:1015600080938100809180008160809380008091D1
:10157000B10084608093B1008091B000816080935D
:10158000B00080917A00846080937A0080917A0024
:10159000826080937A0080917A00816080937A00E3
:1015A00080917A00806880937A001092C100E09167
:1015B0007E02F0917F0282E08083E0917A02F091D6
:1015C0007B021082E0917C02F0917D028FEC80839F
:1015D00010928602E0918202F091830286E080837D
:1015E000E0918002F0918102808180618083E091AE
:1015F0008002F0918102808188608083E091800286
:10160000F0918102808180688083E0918002F09176
:10161000810280818F7D808310925F0210925E0232
:1016200010925D0210925C020E94390381EF90E0FB
:1016300090935B0280935A0282EF90E0909359025C
:101640008093580210924403809149030E949D06A2
:1016500082E00E949D0688E080934A0360E08FE369
:1016600093E00E94FE0362E084E00E94890262E04F
:1016700085E00E94890262E083E00E94890262E0C4
:1016800082E00E94890261E087E00E94890261E0B5
:1016900088E00E94890280913C038C3008F051C0A0
:1016A00061E08AE00E94890280913C03282F30E0AB
:1016B000F901EE0FFF1FE20FF31FE95EFC4F90816F
:1016C000907C9A60908310923D0310923E032CE030
:1016D000622F0E945710829FB001112430E020E059
:1016E000AB01420F531FFA01EE0FFF1FE40FF51F6E
:1016F000E95EFC4F908196FD16C02F5F3F4F2C3066
:10170000310571F781110FC01092800082E0809343
:1017100081001092850010928400B19A80916F0030
:10172000826080936F00E0913C038E2F90E0FC017B
:10173000EE0FFF1FE80FF91FE95EFC4F8081806408
:1017400080838AE590E00E948C0068EE73E080E080
:1017500090E00E94DF028BECC82E87E0D82E98EE36
:10176000492E93E0592E612C712C82E00E943202A6
:10177000892BA1F480916C0290916D0285309105C6
:1017800009F03FC010926D0210926C0268EC70E09C
:1017900080E090E00E94DF020E94920683E00E94B7
:1017A0003202892BA1F480916C0290916D02019715
:1017B0008330910560F490936D0280936C0268EC25
:1017C00070E080E090E00E94DF020E94920680912B
:1017D0006C0290916D028230910509F47FC0BCF4D7
:1017E000009731F1019799F180E090E0892B09F49D
:1017F000BCCF0E946601882309F4B7CF0E94000085
:10180000B4CF019690936D0280936C02BFCF843069
:10181000910509F4EFC00CF498C0059729F70E94D0
:10182000920660E080E00E9402078FE891E006C027
:1018300060E080E00E9402078CE491E00E942405B1
:1018400061E08BE00E94020786E491E0CAC08091CB
:101850006802909169020E94E8048C0190936902E9
:1018600080936802809160029091610208171907C5
:1018700031F00E949206109361020093600260E0D2
:1018800080E00E940207B801CE0101960E94EB059C
:101890001BA21AA21DA21CA21FA21EA247E050E07A
:1018A0006CE571E0CE0182960E94C005BE016F5FBB
:1018B0007F4FCE0182960E94AD0564E671E00E94E2
:1018C00097050E942001CE0182960E945A06CE0101
:1018D00001960E945A060E94350786CF80916A02BF
:1018E00090916B020E94E8048C0190936B028093AC
:1018F0006A0280916202909163020817190731F021
:101900000E949206109363020093620260E080E0FE
:101910000E940207B801CE0101960E94EB051BA2AE
:101920001AA21DA21CA21FA21EA249E050E067E657
:1019300071E0CE0182960E94C005BE016F5F7F4FAD
:10194000CE0182960E94AD05BCCF60E080E00E948F
:10195000020760916A0270916B02CE0101960E94AB
:10196000EB056091680270916902CE0188960E9431
:10197000EB051BA21AA21DA21CA21FA21EA2BE0141
:10198000685D7F4FCE0182960E94430661E771E059
:10199000CE0182960E949705BE016F5F7F4F0E9425
:1019A000AD0567E771E00E9497050E942001CE0116
:1019B00082960E945A06CE0188960E945A06CE014F
:1019C00001960E945A0661E080E00E94020780E4CE
:1019D00091E00E94240561E08AE00E9402078BE703
:1019E00091E00E94240564E670E080E090E00E94AF
:1019F000DF02FACE60E080E00E94020760916A0296
:101A000070916B02CE0101960E94EB0570E060E0E0
:101A1000CE0188960E9417061BA21AA21DA21CA224
:101A20001FA21EA2BE01685D7F4FCE0182960E945A
:101A3000430662E871E0CE0182960E949705BE01DE
:101A40006F5F7F4F0E94AD050E942001CE018296FC
:101A50000E945A06CE0188960E945A06CE0101962F
:101A60000E945A0661E080E00E94020784E891E04B
:101A70000E9424056091680270916902072E000C93
:101A8000880B990B0E94890E24E93DE449E35EE34B
:101A90000E94AF0F0E9421101B0110E000E01FA761
:101AA0000EA780916A0290916B020817190708F03F
:101AB000C8C08FB7F8948090640290906502A0909F
:101AC0006602B09067028FBF61E088E00E945B020F
:101AD000F12CE12CE214F30494F461E087E00E941D
:101AE0005B02C6010197F1F760E087E00E945B02AC
:101AF000C6010197F1F78FEFE81AF80AEBCF60E023
:101B000080E00E94020760916A0270916B02CE0130
:101B100001960E94EB050F5F1F4FB801CE0188961A
:101B20000E9417061BA21AA21DA21CA21FA21EA27F
:101B3000BE01685D7F4FCE0182960E94430662E837
:101B400071E0CE0182960E949705BE016F5F7F4FC4
:101B50000E94AD050E942001CE0182960E945A0685
:101B6000CE0188960E945A06CE0101960E945A061E
:101B700090E080E00E948C0068E572E080E090E0F8
:101B80000E94DF028AE590E00E948C0068E572E026
:101B900080E090E00E94DF0261E080E00E940207A6
:101BA0008FB7F894209164023091650240916602EB
:101BB000509167028FBFA0916A02B0916B0211979A
:101BC0008EA59FA5A81BB90B281939094A095B09DD
:101BD0000E94340FA30192010E947E0FCA01B90135
:101BE0001BA21AA21DA21CA21FA21EA22AE0AE01C5
:101BF0004F5F5F4F0E943B0EBE016F5F7F4FCE0174
:101C000082960E94E1051A8219821C821B821E8222
:101C10001D82BE016E5D7F4FCE0101960E9443067C
:101C200069E871E0CE0101960E9497050E942001AB
:101C3000CE0101960E945A06CE0182960E945A0653
:101C40002ECF109269021092680210926B021092CD
:101C50006A0285E090E090936D0280936C02C4CD9F
:101C6000BB274A3031F4992322F4BDE29095819547
:101C70009F4F0C945E0EBB27FA01A62F62177105C9
:101C800081059105330B30FB66F0AA27660F771F9D
:101C9000881F991FAA1FA21710F0A21B6395385026
:101CA000A9F7A05DAA3308F0A95DA19336F7B11199
:101CB000B1931082CA010C94770EBB27FB01552704
:101CC000AA27880F991FAA1FA41710F0A41B839599
:101CD0005051B9F7A05DAA3308F0A95DA193009710
:101CE00079F7B111B1931192CB010C94770EDC010D
:101CF000FC01672F71917723E1F7329704C07C9143
:101D00006D9370836291AE17BF07C8F30895E8948E
:101D100009C097FB3EF490958095709561957F4F33
:101D20008F4F9F4F9923A9F0F92F96E9BB279395E1
:101D3000F695879577956795B795F111F8CFFAF4F1
:101D4000BB0F11F460FF1BC06F5F7F4F8F4F9F4F22
:101D500016C0882311F096E911C0772321F09EE880
:101D6000872F762F05C0662371F096E8862F70E0E6
:101D700060E02AF09A95660F771F881FDAF7880FC0
:101D80009695879597F9089597F99F6780E870E091
:101D900060E008959FEF80EC089500240A941616E1
:101DA000170618060906089500240A941216130649
:101DB000140605060895092E0394000C11F48823D7
:101DC00052F0BB0F40F4BF2B11F460FF04C06F5FF3
:101DD0007F4F8F4F9F4F089557FD9058440F551FC9
:101DE00059F05F3F71F04795880F97FB991F61F09D
:101DF0009F3F79F087950895121613061406551F14
:101E0000F2CF4695F1DF08C0161617061806991F7F
:101E1000F1CF86957105610508940895E894BB2774
:101E200066277727CB0197F90895052E97FB1EF4B7
:101E300000940E942C0F57FD07D00E947E0F07FCD4
:101E400003D04EF40C942C0F50954095309521956D
:101E50003F4F4F4F5F4F08959095809570956195D6
:101E60007F4F8F4F9F4F08950E94A00FA59F900D09
:101E7000B49F900DA49F800D911D11240895B7FF6C
:101E80000C94340F0E94340F821B930B08952F92F1
:101E90003F924F925F926F927F928F929F92AF92FA
:101EA000BF92CF92DF92EF92FF920F931F93CF9347
:101EB000DF93CDB7DEB7CA1BDB0B0FB6F894DEBFDE
:101EC0000FBECDBF09942A88398848885F846E8404
:101ED0007D848C849B84AA84B984C884DF80EE804E
:101EE000FD800C811B81AA81B981CE0FD11D0FB657
:101EF000F894DEBF0FBECDBFED010895A1E21A2E0A
:101F0000AA1BBB1BFD010DC0AA1FBB1FEE1FFF1F9D
:101F1000A217B307E407F50720F0A21BB30BE40BED
:101F2000F50B661F771F881F991F1A9469F7609534
:101F30007095809590959B01AC01BD01CF010895EE
:101F4000A29FB001B39FC001A39F700D811D1124FA
:101F5000911DB29F700D811D1124911D08950E9445
:101F6000C30F0C94DB0E0E94D40E58F00E94CD0ECD
:101F700040F029F45F3F29F00C94C40E51110C94E9
:101F80000F0F0C94CA0E0E94EC0E68F39923B1F364
:101F9000552391F3951B550BBB27AA27621773078F
:101FA000840738F09F5F5F4F220F331F441FAA1F23
:101FB000A9F335D00E2E3AF0E0E832D091505040DF
:101FC000E695001CCAF72BD0FE2F29D0660F771F8D
:101FD000881FBB1F261737074807AB07B0E809F073
:101FE000BB0B802DBF01FF2793585F4F3AF09E3FF8
:101FF000510578F00C94C40E0C940F0F5F3FE4F37E
:10200000983ED4F3869577956795B795F7959F5F3A
:10201000C9F7880F911D9695879597F90895E1E086
:10202000660F771F881FBB1F621773078407BA07E5
:1020300020F0621B730B840BBA0BEE1F88F7E09540
:1020400008950E9428106894B1110C940F0F089500
:102050000E94F40E88F09F5798F0B92F9927B75136
:10206000B0F0E1F0660F771F881F991F1AF0BA953C
:10207000C9F714C0B13091F00E940E0FB1E008957D
:102080000C940E0F672F782F8827B85F39F0B93F6F
:10209000CCF3869577956795B395D9F73EF49095EF
:1020A0008095709561957F4F8F4F9F4F0895991B35
:1020B00079E004C0991F961708F0961B881F7A953F
:1020C000C9F780950895EE0FFF1F0590F491E02D5C
:1020D00009940F931F93CF93DF938230910510F4EF
:1020E00082E090E0E0914D03F0914E0330E020E07B
:1020F000B0E0A0E0309799F42115310509F44AC009
:10210000281B390B24303105D8F58A819B81611554
:10211000710589F1FB0193838283FE0111C0408127
:1021200051810281138148175907E0F04817590778
:1021300099F4109761F012960C93129713961C93D2
:102140003296CF01DF91CF911F910F9108950093A7
:102150004D0310934E03F4CF2115310551F0421772
:10216000530738F0A901DB019A01BD01DF01F80135
:10217000C1CFEF01F9CF90934E0380934D03CDCFA4
:10218000FE01E20FF31F81939193225031093983AD
:102190002883D7CF20914B0330914C03232B41F45C
:1021A000209104013091050130934C0320934B039F
:1021B00020910201309103012115310541F42DB721
:1021C0003EB74091060150910701241B350BE09169
:1021D0004B03F0914C03E217F307A0F42E1B3F0BC7
:1021E0002817390778F0AC014E5F5F4F2417350789
:1021F00048F04E0F5F1F50934C0340934B03819365
:1022000091939FCFF0E0E0E09CCFCF93DF930097D6
:10221000E9F0FC01329713821282A0914D03B09134
:102220004E03ED0130E020E01097A1F420813181D0
:10223000820F931F20914B0330914C0328173907CD
:1022400009F061C0F0934C03E0934B03DF91CF9111
:102250000895EA01CE17DF07E8F54A815B819E0108
:1022600041155105B1F7E901FB83EA834991599181
:10227000C40FD51FEC17FD0761F480819181029690
:10228000840F951FE90199838883828193819B83C1
:102290008A83F0E0E0E012968D919C91139700976D
:1022A000B9F52D913C911197CD010296820F931FA4
:1022B00020914B0330914C032817390739F630979A
:1022C00051F510924E0310924D03B0934C03A0931E
:1022D0004B03BCCFD383C28340815181840F951FB0
:1022E000C817D90761F44E5F5F4F88819981480F05
:1022F000591F518340838A819B8193838283211557
:10230000310509F0B0CFF0934E03E0934D039ECF1B
:10231000FD01DC01C0CF13821282D7CFB0E0A0E074
:10232000E4E9F1E10C94490F8C01009751F4CB01E1
:102330000E9469108C01C801CDB7DEB7E0E10C94B2
:10234000650FFC01E60FF71F9C0122503109E217CF
:10235000F30708F49DC0D901CD91DC911197C61700
:10236000D70798F0C530D10530F3CE010497861712
:10237000970708F3C61BD70B2297C193D1936D9390
:102380007C93CF010E940511D6CF5B01AC1ABD0A28
:102390004C018C0E9D1EA0914D03B0914E03512C0B
:1023A000412CF12CE12C109731F580914B03909149
:1023B0004C038815990509F05CC04616570608F0CD
:1023C00058C08091020190910301009741F48DB7AC
:1023D0009EB74091060150910701841B950BE817A9
:1023E000F90708F055C0F0934C03E0934B03F90153
:1023F00071836083A0CF8D919C91119712966C9000
:10240000129713967C901397A815B90559F56C018E
:1024100042E0C40ED11CCA14DB0420F1AC014A19FD
:102420005B09DA011296159780F0628273825183FC
:102430004083D9016D937C93E114F10471F0D701CD
:102440001396FC93EE93129776CF22968C0F9D1FD6
:10245000F90191838083F301EFCFF0934E03E09372
:102460004D0369CF4816590608F42C017D01D301AC
:102470009ACFCB010E9469107C01009749F0AE0110
:10248000B8010E944B12C8010E940511870153CF69
:1024900010E000E050CFFB01DC0102C001900D9282
:1024A00041505040D8F70895FB01DC0101900D9296
:0A24B0000020E1F70895F894FFCF33
:1024BA00010000004F038000000040001400540097
:1024CA00000000009C01F3002901E9015A013801CA
:1024DA004C0100000000CF03A203E50478039B032C
:1024EA0088037903000000004B07F300E504110399
:1024FA003C4241434B004E4558543E00414D494EE3
:10250A00202D2041525941204D414E004C454E4705
:10251A0054483A006D6D005155414E544954593A48
:10252A00006D6D207820007063730053544152543B
:10253A003E002F003F3F3F730073202020200043BE
:10254A00555454494E4720434F4D504C455445002D
:00000001FF
